S123100050726F6772616D6120656A656D706C6F2064656C2066756E63696F6E616D696584
S12310206E746F206465206D697320737562727574696E61730A00496E74726F64756365E2
S123104020756E206E756D65726F20286D617820323535293A2000456C206E756D65726F9F
S123106020657320000A496E74726F6475636520756E206E756D65726F20286D61782039FD
S12310803939293A2000456C206E756D65726F20657320000A0010CEF0008E1000BD10E3B2
S12310A08E1037BD10E3BD116B860AB7FF008E1057BD10E3BD10F08E1094BD10E38E1065E1
S12210C0BD10E3BD11B28E1094BD10E38E1086BD10E3BD11248E1094BD10E34FB7FF014D
S105FFFE109657
S12310DF000000003412A6802705B7FF0020F735923406CE00001F98C60081642505806449
S12310FF5C20F75D2705CB30F7FF00C600810A2505800A5C20F75D2705CB30F7FF008B3033
S123111FB7FF0035863416FD10DF7F10E11083006425088300647C10E120F23406B610E12A
S123113F8B30B7FF0035067F10E21083000A250883000A7C10E220F2B610E28B30B7FF007F
S123115FCB30F7FF00FC10DF3596000034128E0000BF1169B6FF028030C6643DFD1169B6BD
S123117FFF028030C60A3DF31169FD1169B6FF02810A271780301F894FF31169FD1169108F
S123119F8300FF2306CC00FFFD1169FC1169F6116A359234108E0000BF1169B6FF0280301F
S12311BFC6643DFD1169B6FF028030C60A3DF31169FD1169B6FF0280301F894FF31169FD0E
S11011DF1169108303E72303CC03E7359067
S9030000FC
